:1000000012C019C018C017C016C015C014C013C044
:1000100012C011C010C00FC00EC00DC00CC00BC06C
:100020000AC009C008C011241FBECFE5D4E0DEBF5E
:10003000CDBF22D386C6E4CF2F923F924F925F92DC
:100040006F927F928F929F92AF92BF92CF92DF92E8
:10005000EF92FF920F931F93CF93DF936B017C017D
:10006000411102C0919801C0919A211102C0929A47
:1000700001C0929889EBC8168BE0D806E104F10420
:1000800008F0DBC0F694E794D794C79401E010E041
:10009000A12CB12C5DC082B3886182BB0F5F1F4F62
:1000A000B801882777FD8095982FBBD4D5D52B0133
:1000B0003C01BE01882777FD8095982FB2D4CCD51E
:1000C0009B01AC01C301B201A8D320E030E04AE7B4
:1000D00054E45BD5262E372E482E592E962E872E89
:1000E000782E692EE50105C095E09A95F1F700009C
:1000F0002196BE01882777FD8095982F92D4292DCF
:10010000382D472D562DEED3882374F382B3877E86
:1001100082BB20E030E0A901622D732D842D952D46
:1001200030D51816ACF4E50185E08A95F1F70000AA
:100130002196BE01882777FD8095982F72D49B0168
:10014000AC01692D782D872D962D1BD5181664F3DB
:10015000E801C801AA2797FDA095BA2FC816D906AD
:10016000EA06FB0608F097CF1C141D040CF058C1DA
:1001700000E010E082B3886182BBB6016F5F7F4F01
:10018000882777FD8095982F4CD466D54B015C016C
:10019000B601882777FD8095982F43D45DD59B01C4
:1001A000AC01C501B40139D320E030E04AE754E4A2
:1001B000ECD4662E772E882E992EF62EE72EB82EAA
:1001C000A92EE80105C095E09A95F1F70000219667
:1001D000BE01882777FD8095982F23D42F2D3E2DA3
:1001E0004B2D5A2D7FD3882374F382B3877E82BB35
:1001F00020E030E0A901662D772D882D992DC1D4FE
:100200001816ACF4E80185E08A95F1F70000219614
:10021000BE01882777FD8095982F03D49B01AC0100
:100220006F2D7E2D8B2D9A2DACD4181664F391E092
:10023000C91AD10809F09ECFF3C002E010E0A12C4A
:10024000B12C82B3886182BBB801882777FD809585
:10025000982FE7D301D52B013C01B80161507109FA
:10026000882777FD8095982FDCD3F6D49B01AC01CD
:10027000C301B201D2D220E030E04AE754E485D491
:10028000262E372E482E592E962E872E782E692E02
:10029000E50105C085E08A95F1F700002196BE01D1
:1002A000882777FD8095982FBCD3292D382D472D91
:1002B000562D18D3882374F382B3877E82BB20E047
:1002C00030E0A901622D732D842D952D5AD4181676
:1002D000ACF4E50195E09A95F1F700002196BE0196
:1002E000882777FD8095982F9CD39B01AC01692DC1
:1002F000782D872D962D45D4181664F30F5F1F4F68
:100300000E3D85E0180709F09CCF98EBC91A9BE0D9
:10031000D90AE108F10820E030E082B3886182BBAD
:100320008FE792E00197F1F700C0000082B3877E6B
:1003300082BB8FE792E00197F1F700C000002F5FCA
:100340003F4FC901AA2797FDA095BA2FC816D90615
:10035000EA06FB0610F70CED15E0E12CF12C82B358
:10036000886182BBB8016F5F7F4F882777FD8095DA
:10037000982F57D371D44B015C01B801882777FDC2
:100380008095982F4ED368D49B01AC01C501B40170
:1003900044D220E030E04AE754E4F7D3662E772ECB
:1003A000882E992ED62EC72EB82EA92EE70105C06D
:1003B00095E09A95F1F700002196BE01882777FD18
:1003C0008095982F2ED32D2D3C2D4B2D5A2D8AD232
:1003D000882374F382B3877E82BB20E030E0A901DA
:1003E000662D772D882D992DCCD31816ACF4E70106
:1003F00085E08A95F1F700002196BE01882777FDF8
:100400008095982F0ED39B01AC016D2D7C2D8B2DEB
:100410009A2DB7D3181664F30150110909F09FCF34
:10042000DF91CF911F910F91FF90EF90DF90CF90D0
:10043000BF90AF909F908F907F906F905F904F9004
:100440003F902F9008958A3021F45D9BFECF9DE070
:100450009CB95D9BFECF8CB980E090E008955F9BD6
:10046000FECF8CB190E0089581E080BD8FE989B91D
:1004700088E18AB986E880BD5F9B03C08CB15F9933
:10048000FDCF089520E030E080E041E050E0B49BF3
:10049000FECFB09B09C0BA01022E02C0660F771FC3
:1004A0000A94E2F7862B09C0BA01022E02C0660F39
:1004B000771F0A94E2F760958623B499FECF2F5FE9
:1004C0003F4F2830310519F70895EFE1FEE43197E9
:1004D000F1F700C0000020E030E090E0AC01022E17
:1004E00002C0559547950A94E2F740FF02C0C29AB0
:1004F00001C0C298C39AEFECF7E03197F1F700C062
:100500000000C398EFECF7E03197F1F700C000006E
:100510002F5F3F4F2830310509F708954F925F92C2
:100520006F927F928F929F92AF92BF92CF92DF9203
:10053000EF92FF920F931F93CF93DF936B017C0198
:1005400049015A016CD22B013C01C501B40167D2AB
:1005500020E030E04AE754E4C9D19B01AC01C3017B
:10056000B20113D3B62EA72E982E892E20E030E0AC
:10057000A90107D318160CF047C060E67BE583E0BD
:1005800090E0A7019601BBD369017A01C0E0D0E0F9
:1005900000E010E0959AC114D104E104F10491F156
:1005A000980185E08A95F1F700002F5F3F4FC90160
:1005B000AA2797FDA095BA2F8C159D05AE05BF05FE
:1005C00080F39598980185E08A95F1F700002F5FF8
:1005D0003F4FC901AA2797FDA095BA2F8C159D05FD
:1005E000AE05BF0580F32196BE01882777FD809573
:1005F000982F17D22B2D3A2D492D582D73D18823A2
:100600004CF202C09598EFCFDF91CF911F910F91DF
:10061000FF90EF90DF90CF90BF90AF909F908F9022
:100620007F906F905F904F90089580E487B986E047
:1006300086B9379A369A3699FECF84B195B1089526
:10064000806487B9369A3699FECF4AE060E070E060
:10065000CB01369A3699FECF24B135B1620F731FA4
:10066000811D911D4150A9F724E630E040E050E0A3
:1006700046D3822F932F0895CF93DF9300D0CDB729
:10068000DEB78FEF87BBB898BC98BD9881BB83E875
:100690008FBD8CE08EBD8FEF90E09BBD8ABD909AA0
:1006A00022E330E040E050E06CED75E080E090E067
:1006B00035DFBBDFA12CB12C00E0E4DE843009F48F
:1006C0004CC028F4813059F08330B9F730C08630FF
:1006D00009F46CC008F44CC08D3079F797C06501FF
:1006E0007501D0DE90E08C159D0519F0EE24E394A1
:1006F000F12C2FEFC21AD20A34E6C316D10489F7BF
:10070000102F812FE2DE1F5F1436D9F78FEF90E7AD
:10071000E2E081509040E040E1F700C00000EF28A7
:1007200019F481E0D2DEC9CF802FCFDEC6CFAADE9A
:10073000682F70E080E090E072D120E030E048EC7B
:1007400052E4D4D020E030EC4FE754E41ED236D14E
:100750007BBD6ABD81E0B9DEB0CF94DE811104C0FB
:10076000909A802FB2DEA9CF909881E0AEDEA5CF1F
:1007700089DEC82ED12CE12CF12C84DE382E212CE0
:10078000C101AA2797FDA095BA2FC80ED91EEA1E4F
:10079000FB1E78DE77DE76DE782E74DE282F472D7E
:1007A000C701B60149DC81E090DE87CF6BDE482EC1
:1007B000512C612C712C66DE982E812CC401AA2745
:1007C00097FDA095BA2F480E591E6A1E7B1E5ADE51
:1007D00059DE58DEC82ED12CE12CF12C53DE8A8351
:1007E000198229813A81C901AA2797FDA095BA2FBC
:1007F000C80ED91EEA1EFB1E45DE44DEA701960187
:10080000C301B2018BDE81E060DE57CF3BDE18DF33
:10081000F92E5BDE8F2D59DE50CF5058BB27AA270B
:100820000ED075C166D130F06BD120F031F49F3F0E
:1008300011F41EF45BC10EF4E095E7FB51C1E92F02
:1008400077D180F3BA17620773078407950718F00A
:1008500071F49EF58FC10EF4E0950B2EBA2FA02DEA
:100860000B01B90190010C01CA01A0011124FF275D
:10087000591B99F0593F50F4503E68F11A16F04058
:10088000A22F232F342F4427585FF3CF4695379557
:100890002795A795F0405395C9F77EF41F16BA0B1C
:1008A000620B730B840BBAF09150A1F0FF0FBB1FCA
:1008B000661F771F881FC2F70EC0BA0F621F731F13
:1008C000841F48F4879577956795B795F7959E3F70
:1008D00008F0B3CF9395880F08F09927EE0F9795FE
:1008E00087950895D9D008F481E008950CD00FC100
:1008F00007D140F0FED030F021F45F3F19F0F0C096
:10090000511139C1F3C014D198F39923C9F3552378
:10091000B1F3951B550BBB27AA27621773078407F2
:1009200038F09F5F5F4F220F331F441FAA1FA9F3A8
:1009300033D00E2E3AF0E0E830D091505040E6959A
:10094000001CCAF729D0FE2F27D0660F771F881FFB
:10095000BB1F261737074807AB07B0E809F0BB0BEA
:10096000802DBF01FF2793585F4F2AF09E3F51050E
:1009700068F0B6C000C15F3FECF3983EDCF38695AB
:1009800077956795B795F7959F5FC9F7880F911D84
:100990009695879597F90895E1E0660F771F881F70
:1009A000BB1F621773078407BA0720F0621B730B23
:1009B000840BBA0BEE1F88F7E095089504D0689475
:1009C000B111D9C00895BCD088F09F5790F0B92FCD
:1009D0009927B751A0F0D1F0660F771F881F991F94
:1009E0001AF0BA95C9F712C0B13081F0C3D0B1E0A6
:1009F0000895C0C0672F782F8827B85F39F0B93FB6
:100A0000CCF3869577956795B395D9F73EF4909595
:100A10008095709561957F4F8F4F9F4F0895E89413
:100A200009C097FB3EF490958095709561957F4F36
:100A30008F4F9F4F9923A9F0F92F96E9BB279395E4
:100A4000F695879577956795B795F111F8CFFAF4F4
:100A5000BB0F11F460FF1BC06F5F7F4F8F4F9F4F25
:100A600016C0882311F096E911C0772321F09EE883
:100A7000872F762F05C0662371F096E8862F70E0E9
:100A800060E02AF09A95660F771F881FDAF7880FC3
:100A90009695879597F90895990F0008550FAA0B19
:100AA000E0E8FEEF16161706E807F907C0F0121681
:100AB0001306E407F50798F0621B730B840B950B84
:100AC00039F40A2661F0232B242B252B21F40895D9
:100AD0000A2609F4A140A6958FEF811D811D089576
:100AE00097F99F6780E870E060E008959FEF80ECE1
:100AF000089500240A941616170618060906089584
:100B000000240A9412161306140605060895092EE9
:100B10000394000C11F4882352F0BB0F40F4BF2B58
:100B200011F460FF04C06F5F7F4F8F4F9F4F089598
:100B300057FD9058440F551F59F05F3F71F047958E
:100B4000880F97FB991F61F09F3F79F08795089573
:100B5000121613061406551FF2CF4695F1DF08C092
:100B6000161617061806991FF1CF869571056105AF
:100B700008940895E894BB2766277727CB0197F957
:100B800008958ADF08F48FEF08950BD0C0CFB1DF4E
:100B900028F0B6DF18F0952309F0A2CFA7CF1124D3
:100BA000EACFC6DFA0F3959FD1F3950F50E0551F14
:100BB000629FF001729FBB27F00DB11D639FAA27B2
:100BC000F00DB11DAA1F649F6627B00DA11D661F01
:100BD000829F2227B00DA11D621F739FB00DA11D22
:100BE000621F839FA00D611D221F749F3327A00DDC
:100BF000611D231F849F600D211D822F762F6A2F78
:100C000011249F5750408AF0E1F088234AF0EE0FFC
:100C1000FF1FBB1F661F771F881F91505040A9F709
:100C20009E3F510570F05CCFA6CF5F3FECF3983E3E
:100C3000DCF3869577956795B795F795E7959F5F70
:100C4000C1F7FE2B880F911D9695879597F908950A
:100C500011F40EF44BCF3EC073DFD0F39923D9F3D8
:100C6000CEF39F57550B87FF43D00024A0E640EA00
:100C7000900180585695979528F4805C660F771FF1
:100C8000881F20F026173707480730F4621B730BC4
:100C9000840B202931294A2BA695179407942025E7
:100CA00031254A2758F7660F771F881F20F026172F
:100CB0003707480730F4620B730B840B200D311D8E
:100CC000411DA09581F7B901842F9158880F969501
:100CD000879508959F3F31F0915020F4879577953F
:100CE0006795B795880F911D9695879597F9089503
:100CF00091505040660F771F881FD2F70895A1E2E8
:100D00001A2EAA1BBB1BFD010DC0AA1FBB1FEE1F85
:100D1000FF1FA217B307E407F50720F0A21BB30BD0
:100D2000E40BF50B661F771F881F991F1A9469F74C
:100D300060957095809590959B01AC01BD01CF01A8
:060D40000895F894FFCFB6
:00000001FF
